:020000040800F2
:10000000300400204501000831030008DB0200082D
:100010002D0300088D01000895070008000000006E
:10002000000000000000000000000000290400089B
:1000300091010008000000003303000815050008C6
:100040005F0100085F0100085F0100085F01000810
:100050005F0100085F0100085F0100085F01000800
:100060005F0100085F0100085F0100085F010008F0
:100070005F0100085F0100085F0100085F010008E0
:100080005F0100085F0100085F0100085F010008D0
:100090005F0100085F0100085F0100085F010008C0
:1000A0005F0100085F0100085F0100085F010008B0
:1000B0005F0100085F0100085F0100085F010008A0
:1000C0005F0100085F0100085F0100085F01000890
:1000D0005F0100085F0100085F0100085F01000880
:1000E0005F0100085F0100085F0100085F01000870
:1000F0005F0100085F0100085F0100085F01000860
:100100005F0100085F0100085F0100085F0100084F
:100110005F0100085F0100085F0100085F0100083F
:100120005F0100085F0100085F0100085F0100082F
:10013000DFF80CD000F018F8004800470D08000860
:10014000300400200648804706480047FEE7FEE7E7
:10015000FEE7FEE7FEE7FEE7FEE7FEE7FEE7FEE777
:100160008905000831010008064C074D06E0E068EB
:1001700040F0010394E8070098471034AC42F6D3EE
:10018000FFF7DAFF700800089008000800BFFEE7DC
:100190007047000001B50849009808604FF0E02062
:1001A000006940F001004FF0E021086100BF024803
:1001B00000680028FBD108BD280000202DE9F0418F
:1001C000024600250026002000230024002791F885
:1001D00003C00CF00F0591F803C00CF0100CBCF13B
:1001E000000F03D091F802C04CEA050591F800C059
:1001F000BCF1000F31D0146800202BE04FF0010C4F
:100200000CFA00F3B1F800C00CEA03069E4220D1BC
:1002100083004FF00F0C0CFA03F7BC4305FA03FC04
:100220004CEA040491F803C0BCF1280F06D14FF04A
:10023000010C0CFA00FCC2F814C00AE091F803C0EB
:10024000BCF1480F05D14FF0010C0CFA00FCC2F8CC
:1002500010C0401C0828D1D31460B1F800C0BCF114
:10026000FF0F34DD546800202EE000F1080C4FF041
:10027000010808FA0CF3B1F800C00CEA03069E422C
:1002800021D183004FF00F0C0CFA03F7BC4305FAA1
:1002900003FC4CEA040491F803C0BCF1280F05D11B
:1002A00000F1080C08FA0CF8C2F8148091F803C0A9
:1002B000BCF1480F07D100F1080C4FF0010808FA13
:1002C0000CF8C2F81080401C0828CED35460BDE85A
:1002D000F081416170470161704700BFFEE7000097
:1002E00008B50121242000F025F84FF48070ADF806
:1002F000000010208DF8030003208DF802006946ED
:100300000848FFF75BFF0420ADF8000010208DF8CF
:10031000030003208DF8020069460348FFF74EFFF3
:1003200008BD0000000801400014014000BFFEE7C6
:100330007047704729B1064A92690243044B9A619B
:1003400004E0034A92698243014B9A6170470000BE
:100350000010024030B500210022002400232D4D62
:100360006D6805F00C0121B1042905D0082923D1BD
:1003700005E0294D056022E0274D05601FE0254D71
:100380006D6805F47012234D6D6805F48034022504
:1003900005EB92421CB9214D554305600BE01D4D04
:1003A0006D6805F400351DB11C4D5543056002E034
:1003B000194D5543056002E0174D056000BF00BFB1
:1003C000144D6D6805F0F0010909154D6B5C056869
:1003D000DD4045600F4D6D6805F4E061090A104D80
:1003E0006B5C4568DD4085600A4D6D6805F46051C1
:1003F000C90A0B4D6B5C4568DD40C560054D6D68F5
:1004000005F44041890B074D6B5CC568B5FBF3F5FE
:10041000056130BD0010024000127A0000093D0065
:100420001400002024000020704710B500F002F8EE
:1004300010BD00000CB5002001900090334800680A
:1004400040F480303149086000BF3048006800F453
:10045000003000900198401C0190009818B9019854
:10046000B0F5A06FF1D12948006800F4003010B158
:100470000120009001E0002000900098012843D165
:100480002348006840F010002149086008460068D1
:1004900020F0030008600846006840F00200086091
:1004A0001A4840681949486008464068486008464C
:1004B000406840F4806048600846406820F47C1042
:1004C00048600846406840F4E81048600846006804
:1004D00040F08070086000BF0C48006800F00070B9
:1004E0000028F9D00948406820F003000749486017
:1004F0000846406840F00200486000BF034840687A
:1005000000F00C000828F9D10CBD000000100240DA
:100510000020024010B500F067F810BD30B5164855
:100520000068164AB0FBF2F1B1F1807F01D30120DF
:100530001DE021F07F40401E4FF0E0225061501737
:100540000F22002807DA13071D0E0D4B00F00F04D1
:10055000241F1D5503E013071C0E0A4B1C5400BF3B
:1005600000204FF0E022906107201061002008B1C8
:1005700000BFFEE730BD00000000002040420F0039
:1005800018ED00E000E400E010B51348006840F00A
:1005900001001149086008464068104908400E49AA
:1005A0004860084600680E4908400B490860084644
:1005B000006820F4802008600846406820F4FE00AF
:1005C00048604FF41F008860FFF72FFF4FF0006076
:1005D0000449086010BD0000001002400000FFF850
:1005E000FFFFF6FE08ED00E00448006820B1034874
:1005F0000068401E01490860704700002800002084
:1006000021B1828942F40052828104E082894DF650
:10061000FF731A408281704700B585B00121042024
:10062000FFF788FE01218803FFF784FE4FF4007076
:10063000ADF8100018208DF8130003208DF812007B
:1006400004A91348FFF7BAFD4FF48060ADF810001D
:1006500004208DF8130004A90D48FFF7AFFD4FF4F7
:10066000E13000900020ADF80400ADF80600ADF8D0
:100670000800ADF80C000C20ADF80A0069460548EA
:1006800000F018F801210348FFF7BAFF05B000BDDC
:10069000000801400038014002460020B1F5007F0B
:1006A00000D100BF13880B400BB1012000E00020F7
:1006B000704700002DE9F04786B005460E4600243D
:1006C000A24600BFA1460027B08900B100BF2F4657
:1006D0002C8A4CF6FF700440F08804432C82AC89CD
:1006E0004EF6F3100440B0883189084371890843FD
:1006F0000443AC81AC8A4FF6FF400440B089044308
:10070000AC8201A8FFF726FE1F48874202D1DDF820
:1007100010A001E0DDF80CA0A88900F4004040B171
:100720000AEBCA0000EB0A1031684900B0FBF1F88F
:1007300007E00AEBCA0000EB0A1031688900B0FB41
:10074000F1F86420B8FBF0F004012009642101FBFA
:100750001089A88900F4004040B1322000EBC900A4
:10076000B0FBF1F000F00700044308E0322000EB9A
:1007700009106421B0FBF1F000F00F0004432C815C
:1007800006B0BDE8F087000000380140C1F3080260
:100790008280704700BFFEE7014A024900F013B8AB
:1007A000E90700082C00002002E008C8121F08C159
:1007B000002AFAD170477047002001E001C1121FE2
:1007C000002AFBD170472DE9F04116460F4604463A
:1007D000002503E03946B047641C6D1C20780028D2
:1007E000F8D12846BDE8F08170B504460D46E1B267
:1007F0000548FFF7CBFF00BF80210348FFF74CFF00
:100800000028F9D0204670BD00380140FFF768FD90
:10081000FFF702FFFFF782FE0EA0FFF7BDFF17E014
:100820004FF480710F48FFF754FD04210E48FFF785
:1008300052FD0E48FFF7AEFC4FF480710948FFF7F8
:100840004AFD04210848FFF744FD0848FFF7A2FCD1
:10085000E6E70000D6B8C1EEB2D9D7F74C45440D53
:100860000A000000000801400014014040420F004F
:10087000900800080000002030000000A8070008D1
:10088000C00800083000002000040000B80700087D
:1008900000A24A040000000000000000010203045E
:1008A0000607080900000000010203040102030416
:1008B0000607080902040608000000000000000006
:0400000508000131BD
:00000001FF
