:020000040800F2
:10000000E8140020450100085D0900080709000800
:1000100059090008C1060008ED11000800000000A1
:10002000000000000000000000000000810E000839
:10003000C5060008000000005F0900086D0F0008F9
:100040005F0100085F0100085F0100085F01000810
:100050005F0100085F0100085F0100085F01000800
:100060005F0100085F0100085F0100085F010008F0
:100070005F0100085F0100085F0100085F010008E0
:100080005F0100085F0100085F0100085F010008D0
:100090005F0100085F0100085F0100085F010008C0
:1000A0005F0100085F0100085F0100085F010008B0
:1000B0005F0100085F0100085F0100085F010008A0
:1000C0005F0100085F0100085F0100085F01000890
:1000D0005F0100085F0100085F0100085F01000880
:1000E0005F0100085F0100085F0100085F01000870
:1000F0005F0100085F0100085F0100085F01000860
:100100005F0100085F0100085F0100085F0100084F
:100110005F0100085F0100085F0100085F0100083F
:100120005F0100085F0100085F0100085F0100082F
:10013000DFF80CD000F0A2FA00480047E91A0008E6
:10014000E81400200648804706480047FEE7FEE71F
:10015000FEE7FEE7FEE7FEE7FEE7FEE7FEE7FEE777
:10016000E10F0008310100082DE9FE4F804681EAC9
:100170000300C00F0C46009021F0004123F0004521
:10018000B8EB0200A94105D24046214690461C46E4
:100190000B46024623F00040104347D0270DC7F31B
:1001A0000A00C3F30A510290401A019040286BDA0A
:1001B000C3F3130040F4801B0098924620B1002343
:1001C000D2EB030A63EB0B0B01985946C0F14002D6
:1001D000504600F0C4F806460D4650465946019A6E
:1001E00000F0CCF810EB08006141002487EA1152BE
:1001F00084EAE7731A4340D0009A62B3019A012A55
:100200004FEA075215DC001B61EB02014FF0004280
:1002100002EA0752CDE90042001C41F58011324646
:100220002B4600F0CCF803B0BDE8F08F40462146E5
:10023000F9E7001B61EB0201001C41F58013001877
:100240005B412018A2F5001747EB030140EAD57087
:10025000B6196D4111E06D084FEA360645EAC075E2
:100260004FEA0752001B61EB0201001C41F58011AF
:1002700049084FEA30000019514132462B4603B07D
:10028000BDE8F04F00F08CB8009801224000002338
:10029000D0EB020263EBE073009821464FEAE07472
:1002A000B8EB000061EB0401E9E783F000435BE792
:1002B00081F0004158E70EB540F233410291002130
:1002C000CDE900110A460B4600F079F803B000BDF5
:1002D00030B50B46014600202022012409E021FA16
:1002E00002F59D4205D303FA02F5491B04FA02F513
:1002F0002844151EA2F10102F1DC30BD2DE9F05FAA
:100300000546002092469B46884606468146402484
:100310001BE0284641464746224600F0C1F95346B5
:100320005A46C01A914110D311461846224600F091
:1003300016F82D1A67EB01084F46224601200021CE
:1003400000F00DF817EB00094E41201EA4F1010446
:10035000DFDC484631462A464346BDE8F09F202A66
:1003600004DB203A00FA02F1002070479140C2F10C
:10037000200320FA03F3194390407047202A06DB3C
:10038000CB17203A41FA02F043EAE07306E041FA63
:1003900002F3D040C2F12002914008431946704751
:1003A00010B5141E73F1000408DA401C41F100017D
:1003B00092185B411A4301D120F0010010BD2DE9D4
:1003C000F04D92469B4611B1B1FA81F202E0B0FACB
:1003D00080F220329046FFF7C2FF04460F4640EA03
:1003E0000A0041EA0B0153465A46084313D011460E
:1003F00053EA010019D0C8F14002504600F050F90C
:1004000005460E46504659464246FFF7A8FF0843A8
:1004100005D0012004E020463946BDE8F08D0020DB
:10042000054346EAE0762C4337430A986305E40A1D
:10043000A0EB08000022FD0A44EA47540A3002D526
:1004400000200146E9E7010510196941DDE9084589
:1004500000196941BDE8F04DA2E72DE9FE4F81EAA0
:10046000030404F0004421F0004100944FF0000B1D
:1004700023F0004350EA01045ED052EA03045BD04B
:10048000C3F30A54C1F30A552C44A4F2F334019483
:10049000A0FB0254C1F3130141F48011C3F3130311
:1004A00043F4801301FB024400FB034E840A970AC5
:1004B00044EA815447EA8357A4FB076802958D0AF2
:1004C00005FB07854FEA932C04FB0C542705029D7E
:1004D0004FEA065847EA1637B5EB08056EEB070CEE
:1004E000870E920E47EA811742EA8312A7FB0201A8
:1004F000B6EB0B0164EB00042B0D43EA0C335E18E2
:1005000044EB1C50DA465146E7FB0201C5F31304E5
:100510004FEA0B3343EA14534FEA0432019C43EA97
:100520000603A4F10C040294009CCDE900B4FFF78B
:1005300046FF03B0BDE8F08F00200146F9E72DE942
:10054000F04D81EA030404F0004B21F0004514460D
:100550004FF0000A23F0004150EA050220D054EA8F
:1005600001021DD0C5F30A570246C5F31303C1F3B8
:100570001300C1F30A5640F4801543F48013A7EB2F
:100580000608101BD64608F2FD3873EB050002D3AF
:1005900008F1010801E092185B41B8F1000F03DA9D
:1005A00000200146BDE8F08D00204FF48011064682
:1005B00084460EE0171B73EB050705D3121B63EB94
:1005C000050306434CEA010C49084FEA3000921833
:1005D0005B4150EA0107EDD152EA030012D082EAF2
:1005E000040083EA0501084305D0101BAB4106D285
:1005F0000122002306E000224FF0004302E06FF0EA
:10060000010253101AEB06004CEB085110EB0A00E4
:1006100041EB0B01BDE8F04DFFF7C2BEC1F30A523A
:10062000C1F3130140F2FF3341F480119A4202DA20
:1006300000200146704740F233439A42A2F233420F
:1006400002DC524200F02CB8FFF789BE30B5041E20
:1006500071F1000404DB4FF00044404264EB0101FF
:10066000141E73F1000405DB1C464FF00043524298
:1006700063EB0403994208BF904230BD064C074D1E
:1006800006E0E06840F0010394E807009847103462
:10069000AC42F6D3FFF750FDA81D0008C81D0008A6
:1006A000202A04DB203A21FA02F00021704721FAC7
:1006B00002F3D040C2F1200291400843194670472E
:1006C00000BFFEE77047000001B5084900980860C8
:1006D0004FF0E020006940F001004FF0E021086198
:1006E00000BF024800680028FBD108BD2C00002094
:1006F00010B500F0E3FA00F051FB10BD70B50446F0
:100700000D4616460421104800F0F9F8032000F0C9
:10071000CBF9C4F3074000F0C7F9C4F3072000F099
:10072000C3F9E0B200F0C0F904E0002000F0BCF929
:1007300028706D1C3000A6F10106F6D10421024894
:1007400000F0DFF870BD00000008014010B504465D
:10075000240300F085FB00F069FB04210B4800F046
:10076000CEF8202000F0A0F9C4F3074000F09CF977
:10077000C4F3072000F098F9E0B200F095F90421E5
:10078000024800F0BEF800F051FB10BD0008014027
:1007900070B504460D46164600F062FB00F046FBBD
:1007A0000421104800F0ABF8022000F07DF9C4F3FA
:1007B000074000F079F9C4F3072000F075F9E0B2C2
:1007C00000F072F903E0287800F06EF96D1C30003B
:1007D000A6F10106F7D10421024800F092F800F0DA
:1007E00025FB70BD000801402DE9F04102460025BF
:1007F0000026002000230024002791F803C00CF0FD
:100800000F0591F803C00CF0100CBCF1000F03D0E1
:1008100091F802C04CEA050591F800C0BCF1000F48
:1008200031D0146800202BE04FF0010C0CFA00F3DB
:10083000B1F800C00CEA03069E4220D183004FF0BD
:100840000F0C0CFA03F7BC4305FA03FC4CEA040452
:1008500091F803C0BCF1280F06D14FF0010C0CFA3F
:1008600000FCC2F814C00AE091F803C0BCF1480FC4
:1008700005D14FF0010C0CFA00FCC2F810C0401C6E
:100880000828D1D31460B1F800C0BCF1FF0F34DDEB
:10089000546800202EE000F1080C4FF0010808FA1F
:1008A0000CF3B1F800C00CEA03069E4221D183008C
:1008B0004FF00F0C0CFA03F7BC4305FA03FC4CEAAB
:1008C000040491F803C0BCF1280F05D100F1080C15
:1008D00008FA0CF8C2F8148091F803C0BCF1480F74
:1008E00007D100F1080C4FF0010808FA0CF8C2F823
:1008F0001080401C0828CED35460BDE8F0814161CF
:1009000070470161704700BFFEE7000008B5012194
:10091000242000F025F84FF48070ADF8000010207E
:100920008DF8030003208DF8020069460848FFF7A0
:100930005BFF0420ADF8000010208DF803000320B9
:100940008DF8020069460348FFF74EFF08BD00001E
:10095000000801400014014000BFFEE770477047E7
:1009600029B1064A92690243044B9A6104E0034AA2
:1009700092698243014B9A61704700000010024067
:1009800030B500210022002400232D4D6D6805F0B4
:100990000C0121B1042905D0082923D105E0294DF6
:1009A000056022E0274D05601FE0254D6D6805F4C8
:1009B0007012234D6D6805F48034022505EB9242D8
:1009C0001CB9214D554305600BE01D4D6D6805F4C4
:1009D00000351DB11C4D5543056002E0194D5543CE
:1009E000056002E0174D056000BF00BF144D6D6843
:1009F00005F0F0010909154D6B5C0568DD404560A7
:100A00000F4D6D6805F4E061090A104D6B5C456897
:100A1000DD4085600A4D6D6805F46051C90A0B4DD3
:100A20006B5C4568DD40C560054D6D6805F440416F
:100A3000890B074D6B5CC568B5FBF3F5056130BDEF
:100A40000010024000127A0000093D00140000204E
:100A50002400002021B1028842F04002028004E01C
:100A600002884FF6BF731A400280704710B5042108
:100A70000C48FFF744FF9F2000F016F8002000F01C
:100A800013F804462402002000F00EF80443240268
:100A9000002000F009F8044304210248FFF731FF69
:100AA000204610BD0008014010B504464FF4204018
:100AB000194908600AE018490868411E164A116081
:100AC00020B9002000F092F9C0B210BD02211348F5
:100AD00000F038F90028EED02146104800F03EF929
:100AE0004FF420400C4908600AE00B490868411E99
:100AF000094A116020B9002000F078F9C0B2E4E79B
:100B00000121064800F01EF90028EED0034800F04D
:100B100022F9C0B2D9E700003000002000300140C7
:100B200070B504460D46164600F09AF900F07EF9BD
:100B300004211548FFF7E3FE0220FFF7B5FFC4F3D9
:100B40000740FFF7B1FFC4F30720FFF7ADFFE0B2A6
:100B5000FFF7AAFFB6F5807F04DD4FF480760BA087
:100B600000F046FB03E02878FFF79EFF6D1C300085
:100B7000A6F101018EB2F6D104210348FFF7C1FEB0
:100B800000F054F970BD0000000801403C3C2D46C7
:100B90004C4153482D4552524F522D3E3E2053500A
:100BA000495F466C6173685F506167655F57726942
:100BB000746520746F6F206C61726765210A000094
:100BC0002DE9F04781460F4616464FEA1738C7F31E
:100BD0000B0ACAF58054A64200DC344644E04FEAD2
:100BE00008304FF480522249FFF788FD002508E0C5
:100BF0000AEB05001E49085CFF2800D003E0681CD2
:100C000085B2A542F4DB00BFA54216DA4046FFF7E5
:100C10009DFD002507E019F8050005EB0A01144ABF
:100C20005054681C85B2A542F5DB4FEA08314FF4F9
:100C300080520F4800F01EF804E02246394648462C
:100C400000F018F8A64200D10FE008F101084FF0BB
:100C5000000AA1442744301B86B2B6F5805F02DD4E
:100C60004FF4805400E03446B9E700BFBDE8F08798
:100C7000E40000202DE9F04107460E461446F0B28C
:100C8000C0F58075AC4200DC254612E02A463946A4
:100C90003046FFF745FFAC4200D10BE02F442E4415
:100CA000601B84B2B4F5807F02DD4FF4807500E0F4
:100CB0002546EBE700BFBDE8F081000008B5012143
:100CC0000420FFF74DFE01210803FFF749FE202015
:100CD000ADF8000018208DF8030003208DF8020005
:100CE00069461748FFF780FD4020ADF8000004205A
:100CF0008DF8030003208DF8020069461048FFF7C5
:100D000073FD8020ADF8000018208DF8030003204B
:100D10008DF8020069460A48FFF766FD0420ADF829
:100D2000000010208DF8030003208DF802006946B2
:100D30000348FFF759FD04210148FFF7E2FD08BD14
:100D4000000801400246002013890B400BB101202E
:100D500000E0002070470146888970478181704714
:100D600010B50022028802F441520B884C882343BC
:100D70008C882343CC8823430C8923434C89234309
:100D80008C892343CC8923431A430280838B4FF2FF
:100D9000FF74234083830B8A038210BD00B585B0A6
:100DA0000020ADF80C000120ADF808000220ADF8DD
:100DB00006000020ADF81000ADF80400ADF800000A
:100DC000ADF80E004FF48270ADF802004FF40070E1
:100DD000ADF80A0069460448FFF7C2FF0121024846
:100DE000FFF738FE05B000BD0030014010B50446E5
:100DF000214602A000F0FCF9002010BD3C3C2D462D
:100E00004C4153482D4552524F522D3E3E20535097
:100E10004920B5C8B4FDB3ACCAB1216572726F7216
:100E2000436F6465203D2025640A000010B500244E
:100E300004210A48FFF763FD0520FFF735FE00BFD8
:100E40000020FFF731FE044604F001000028F7D12E
:100E500004210248FFF755FD10BD000000080140C5
:100E600010B504210548FFF74AFD0620FFF71CFED8
:100E700004210248FFF745FD10BD000000080140B5
:100E8000704710B500F002F810BD00000CB500204E
:100E9000019000903348006840F480303149086088
:100EA00000BF3048006800F4003000900198401CFA
:100EB0000190009818B90198B0F5A06FF1D12948B8
:100EC000006800F4003010B10120009001E0002023
:100ED00000900098012843D12348006840F010009A
:100EE000214908600846006820F0030008600846B1
:100EF000006840F0020008601A48406819494860DC
:100F00000846406848600846406840F48060486091
:100F10000846406820F47C1048600846406840F469
:100F2000E81048600846006840F08070086000BF24
:100F30000C48006800F000700028F9D009484068AB
:100F400020F00300074948600846406840F002006E
:100F5000486000BF0348406800F00C000828F9D141
:100F60000CBD0000001002400020024010B500F04F
:100F700067F810BD30B516480068164AB0FBF2F1AC
:100F8000B1F1807F01D301201DE021F07F40401EA0
:100F90004FF0E022506150170F22002807DA1307A4
:100FA0001D0E0D4B00F00F04241F1D5503E0130709
:100FB0001C0E0A4B1C5400BF00204FF0E022906131
:100FC00007201061002008B100BFFEE730BD00001F
:100FD0000000002040420F0018ED00E000E400E0B7
:100FE00010B51348006840F0010011490860084638
:100FF0004068104908400E494860084600680E499C
:1010000008400B4908600846006820F4802008600A
:101010000846406820F4FE0048604FF41F008860D6
:10102000FFF72FFF4FF000600449086010BD00007B
:10103000001002400000FFF8FFFFF6FE08ED00E0A0
:101040000448006820B103480068401E0149086058
:10105000704700002C00002021B1828942F4005228
:10106000828104E082894DF6FF731A4082817047C5
:1010700000B585B001210420FFF772FC012188032F
:10108000FFF76EFC4FF40070ADF8100018208DF8DB
:10109000130003208DF8120004A91348FFF7A4FBE6
:1010A0004FF48060ADF8100004208DF8130004A9FF
:1010B0000D48FFF799FB4FF4E13000900020ADF8A8
:1010C0000400ADF80600ADF80800ADF80C000C20E7
:1010D000ADF80A006946054800F018F801210348F8
:1010E000FFF7BAFF05B000BD00080140003801401D
:1010F00002460020B1F5007F00D100BF13880B40ED
:101100000BB1012000E00020704700002DE9F047FE
:1011100086B005460E460024A24600BFA146002721
:10112000B08900B100BF2F462C8A4CF6FF700440F6
:10113000F08804432C82AC894EF6F3100440B0884A
:1011400031890843718908430443AC81AC8A4FF666
:10115000FF400440B0890443AC8201A8FFF710FCB3
:101160001F48874202D1DDF810A001E0DDF80CA095
:10117000A88900F4004040B10AEBCA0000EB0A1055
:1011800031684900B0FBF1F807E00AEBCA0000EB58
:101190000A1031688900B0FBF1F86420B8FBF0F068
:1011A00004012009642101FB1089A88900F4004092
:1011B00040B1322000EBC900B0FBF1F000F00700B5
:1011C000044308E0322000EB09106421B0FBF1F089
:1011D00000F00F0004432C8106B0BDE8F08700004A
:1011E00000380140C1F308028280704700BFFEE76B
:1011F0000FB4054B10B503A9044A029800F0CAF8D1
:1012000010BC5DF814FB0000C51A00083400002073
:1012100002E008C8121F08C1002AFAD170477047BF
:10122000002001E001C1121F002AFBD1704700001D
:101230002DE9FF5FDDE90220010DDDF838B0024342
:1012400018D044F61050A1F2FF3141430D140F980D
:10125000012820D0A5EB0B00401C5FEA000A4FF0EC
:101260000004474EDFF81C91A046504616D5CAF13F
:10127000000728E00F98012443A2012808D000218C
:1012800000980F9BC0E90021C0E90243BDE8FF9F21
:101290006FEA0B01F4E7CBF10000DEE7074612E04E
:1012A000F80707D02246334640464946FFF7D5F8AF
:1012B000804689462246334610461946FFF7CDF848
:1012C00004460E467F10002FEAD1DDE90201BAF193
:1012D000000F42464B4602DAFFF7BFF801E0FFF786
:1012E0002EF904460E460022284BFFF7AFF903D82B
:1012F0004FF0FF30014607E00022254B20463146E3
:10130000FEF732FFFFF78AF9102409E0002C0ADB10
:101310000A220023FEF7F2FF019B30321A55641EA9
:1013200050EA0102F2D1641C019AC4F11103144481
:101330000F9A012A03D0012208430DD10AE0084385
:1013400004D000204FF0110B0F9080E7A3EB0B05AA
:101350006D1E0DE05B4504DD4FF0000205F1010557
:1013600004E003DA4FF00002A5F10105002AECD0F9
:1013700000980F99C0E90231C0E9004586E70000F6
:10138000000024400000F03F300000000000F04367
:101390000000E03F2DE9FF4F95B09B468946064689
:1013A00000250FE2252877D100242746F84A01219D
:1013B000059400E0044316F8013F203B01FA03F0D6
:1013C0001042F7D130782A2811D06FF02F033078EF
:1013D000A0F13002092A16D8059A44F0020402EB63
:1013E000820203EB42021044761C0590EFE759F8A5
:1013F000042B0592002A03DA504244F4005405906D
:1014000044F00204761C30782E2816D116F8010F0D
:1014100044F004042A280DD06FF02F023078A0F198
:101420003003092B09D807EB870302EB4303C718E6
:10143000761CF3E759F8047B761C30786C280FD0C3
:1014400006DC4C2817D068280DD06A2814D104E097
:10145000742810D07A280FD10DE044F400140AE06B
:1014600044F4801401E044F440147278824202D1C2
:1014700004F58014761C761C307866280BD013DCBB
:10148000582877D009DC002875D04528F6D04628A2
:10149000F4D047281AD19DE118E0632835D064289C
:1014A00079D0652812D195E1702873D008DC6728BF
:1014B000F1D069286FD06E280DD06F2806D1B5E025
:1014C00073282CD0752875D0782874D05A4617996F
:1014D00090476D1C75E1C4F30250022809D003281F
:1014E0000DD0D9F8001004280DD00D6009F10409C1
:1014F00067E1D9F80010EA17C1E90052F6E7D9F818
:1015000000100D80F2E70D70F0E719F8041B8DF85C
:10151000001000208DF80100EA46012003E059F890
:1015200004AB4FF0FF3061074FF0000102D40DE033
:1015300008F101018846B9420FDA8045F8DB1AF854
:1015400008100029F4D108E008F101018846814221
:10155000FADB1AF808100029F6D105985B46A0EBD3
:10156000080721463846179A00F094FA284400EB01
:10157000080507E04DE029E10DE01AF8010B5A4695
:1015800017999047B8F10108F7D25B4621463846D3
:10159000179A13E142E00A220092C4F302524FF07C
:1015A000000A022A08D059F804CB032A4FEAEC714A
:1015B0000AD00DE029E02AE009F1070121F0070235
:1015C000F2E802C1914609E00FFA8CFC4FEAEC7197
:1015D000042A03D14FFA8CFC4FEAEC71002907DA98
:1015E0000A460021DCF1000C61EB02012D2202E031
:1015F000220504D52B228DF80420012203E0E20706
:1016000001D02022F7E7904659E00A2102E010229B
:101610000DE010214FF0000A00910BE010224FF076
:10162000000A44F004040827009203E008224FF067
:10163000000A0092C4F30252022A05D059F804CBE2
:101640000021032A08D009E009F1070121F007026F
:10165000F2E802C1914605E01FFA8CFC042A01D190
:101660000CF0FF0C4FF00008220728D5702806D098
:10167000009B83F0100353EA0A0305D00EE04022DA
:101680008DF80420012208E05CEA010206D0302235
:101690008DF804208DF8050002229046009B83F00F
:1016A000080353EA0A030AD15CEA010201D1620786
:1016B00005D530228DF804204FF001087F1E5828F0
:1016C00004D034A003900EA802900DE036A0F9E7F4
:1016D00053466046009AFEF711FE84460398825CEA
:1016E0000298401E029002705CEA0100F0D102985C
:1016F00006A9081A00F1200A600702D524F48034F4
:1017000000E00127574502DDA7EB0A0000E00020BA
:1017100000EB0A01009005984144401A0590E0034F
:1017200006D45B462146179A059800F0B3F90544A4
:10173000002706E001A85A46C05D179990476D1C26
:101740007F1C4745F6DBE0030CD55B462146179A24
:10175000059800F09FF9054404E030205A46179997
:1017600090476D1C0099481E00900029F5DC08E0A8
:10177000029802995A460078491C0291179990479D
:101780006D1CBAF10001AAF1010AF1DC65E100006B
:101790000928010030313233343536373839616247
:1017A000636465660000000030313233343536370B
:1017B00038394142434445460000000000F058F9E2
:1017C0000544761C307800287FF4ECAD19B028462B
:1017D000BDE8F08F620700D4062709F1070222F066
:1017E000070CFCE80223E14603F000485FEA080C1E
:1017F00002D00FF2702C0DE05FEA045C02D50FF20C
:10180000682C07E05FEAC47C02D00FF2602C01E094
:10181000AFF2700C4FF0FF3823F00043CDF850C00A
:1018200065280CD006DC452809D046281DD047285D
:101830003DD13DE0662818D067287ED138E00021F0
:10184000112F01DB112000E0781CCDE9000106A971
:101850000EA8FFF7EDFCDDE90F010E9A03910021C0
:10186000009207F1010A04914DE04FF0004000970B
:10187000CDE9011006A90EA8FFF7DAFCDDE90F0299
:1018800003920E9B11990022DDF80CA000930492A4
:1018900011B9791C00EB010AB7EB0A0004D4C0F1BE
:1018A000FF3007F1010A0490AAEB0700019044E021
:1018B000012F00DA01270021112F01DD112000E0A6
:1018C0003846CDE9000106A90EA8FFF7B1FCDDE915
:1018D0000F010E9A0391002104910092BA4621074C
:1018E0000CD40399514500DA8A46BAF1010F05DD9F
:1018F000009AAAF10101515C302908D0B84202DAFD
:1019000010F1040F06DA0121CDE9011015E0AAF16A
:101910000101E9E7002805DC049901440491AAEBE0
:10192000000102E0411C514500DD8A460499401A3D
:10193000401C01904FF000400290200704D4019811
:10194000504501DBCDF8048000208DF84F0002984F
:101950000DF14F07B0F1004F25D02B200E900298CB
:101960004FF0020800280CDA404202902D200E9021
:1019700007E00A210298FEF7ABFC3031029007F82D
:10198000011DB8F10001A8F10108F2DC029800285D
:10199000EFD1791E0E980870307800F0200040F0EA
:1019A000450007F8020D12A8C01B00F107081498A3
:1019B000007800B1012000EB0A01019801EBE07111
:1019C00005984144401A401E0590E00306D45B464A
:1019D0002146179A059800F05DF8054414980078A0
:1019E00018B15A46179990476D1CE00324D55B4601
:1019F0002146179A059800F04DF805441CE004981C
:101A0000002807DBDDE90301884203DD0098405C24
:101A1000179901E0179930205A469047049805F12C
:101A20000105401C04900198401E019004D12E2015
:101A30005A46179990476D1CBAF10001AAF1010AA4
:101A4000DDDC05E017F8010B5A46179990476D1C2D
:101A5000B8F10001A8F10108F4DC5B462146179AB1
:101A60000598ABE62D0000002B00000020000000D0
:101A70002DE9F041044600251E461746880404D48B
:101A800005E039462020B0476D1C641EF9D5284674
:101A9000BDE8F0812DE9F041044600251E46904640
:101AA000C80301D5302700E02027880404D505E0CD
:101AB00041463846B0476D1C641EF9D52846BDE83E
:101AC000F081000070B504460D46E1B20548FFF70D
:101AD00089FB00BF80210348FFF70AFB0028F9D0EB
:101AE000204670BD00380140FEF710FFFFF7C0FA36
:101AF000FFF740FAFEF7FCFD012259490020FEF7EE
:101B0000FDFD58A0FFF774FBFEF7B0FF074639460E
:101B10005DA0FFF76DFB52480078CD2855D05DA041
:101B2000FFF766FBCD204E4908700020FEF70EFE41
:101B300001224B490020FEF72BFE002416E0204630
:101B4000FEF7B9FB0546634A634BFEF70DFB634A9C
:101B500002EBC40203C204EB4400C0EBC410012139
:101B600001EB80005E4941F82400641C072CE6D399
:101B700038220A215948FFF723F84FF4FA60FEF79C
:101B8000A3FD1C22B4215648FFF71AF84FF4FA605F
:101B9000FEF79AFD53A0FFF72BFB00240FE04F4800
:101BA00000EBC400D0E900532A4653A0FFF720FB06
:101BB0004B4850F8241054A0FFF71AFB641C072C64
:101BC000EDD355A0FFF714FB2BE05DA0FFF710FB52
:101BD000382260490A20FEF791FD4FF4FA60FEF7C3
:101BE00073FD1C225C49B420FEF788FD4FF4FA60B7
:101BF000FEF76AFD59A0FFF7FBFA00240FE05548F5
:101C000000EBC401D1E900532A463BA0FFF7F0FAEC
:101C1000514850F824103CA0FFF7EAFA641C072C46
:101C2000EDD31C22382154A0FFF7E2FA17E04FF45D
:101C300080715A48FEF763FE04215948FEF761FEA1
:101C40005848FEF741FD4FF480715448FEF759FEA5
:101C500004215348FEF753FE5248FEF735FDE6E7F0
:101C6000280000200D0AD5E2CAC7D2BBB8F65350EF
:101C7000495F464C415348B6C1D0B4B2E2CAD4C061
:101C8000FDB3CC0D0A0000006964203D20307825AA
:101C9000780D0A000D0AC3BBD3D0BCECB2E2B5BDCF
:101CA000CAFDBEDDB1EAD6BEA3AC464C415348C323
:101CB000BBD3D0B4E6B4A2CAFDBEDDA3ACBDABBD00
:101CC000F8C8EBD0A1CAFDD0B4C8EBCAB5D1E90DB4
:101CD0000A0000009A9999999999B93F3800002013
:101CE00070000020CFF2D0BEC6ACD0B4C8EBCAFDA5
:101CF000BEDDA3BA0D0A0000D0A1CAFD74783D2054
:101D0000254C460D0A000000D5FBCAFD74783D2025
:101D100025640D0A000000000D0AC7EBB8B4CEBB65
:101D2000BFAAB7A2B0E5A3ACD2D4B6C1C8A1CAFDC0
:101D3000BEDDBDF8D0D0BCECD1E90D0A000000003A
:101D40000D0ABCECB2E2B5BDCAFDBEDDB1EAD6BE3D
:101D50000D0A000090000020C80000200D0AB4D336
:101D6000D0BEC6ACB6C1C8A1B5BDB5C4CAFDBEDD46
:101D7000A3BA0D0A00000000646F75626C655F62B3
:101D800075666665723D25642C696E745F62756662
:101D90006665723D25640D0A0000000000080140E0
:101DA0000014014040420F00C81D00080000002040
:101DB0003800000010120008001E00083800002043
:101DC000B01400002012000800A24A040000000025
:101DD00000000000010203040607080900000000DB
:101DE00001020304010203040607080902040608AD
:101DF000000000000000000000A000000000000043
:0400000508000131BD
:00000001FF
